:0C0E79000410412000000414412000007F
:03005300020E8614
:010E86003239
:03000B00020E2BB7
:100E2B00C0E0C0D075D000C004C005C006C007AF7D
:100E3B001FAE1EAD1DAC1CEF2401F51FE43EF51ECD
:100E4B00E43DF51DE43CF51CD007D006D005D004DD
:050E5B00D0D0D0E03210
:03006300020B305D
:0D0B3000C0E0C0F0C083C082C0D075D00806
:100B3D00A2B4E4FE33FF7C007D0A120AFFAC0EADB9
:100B4D000FEC120A7C7BCD7ACC79CC783D1208F86B
:100B5D00C00CC00DC00EC00F7466FFFEFD7C3FAB18
:100B6D0013AA12A911A8101208F8D00BD00AD00997
:100B7D00D0081208078F138E128D118C10A2B3E4BA
:100B8D00FE33FF7C007D0A120AFFAC0EAD0FEC1296
:100B9D000A7C7BCD7ACC79CC783D1208F8C00CC09C
:100BAD000DC00EC00F7466FFFEFD7C3FAB17AA167D
:100BBD00A915A8141208F8D00BD00AD009D0081224
:100BCD0008078F178E168D158C14E4FFFE7DA07C03
:100BDD0040AB13AA12A911A8101209FE600A400811
:100BED007528007529018006752800752900E4FF18
:100BFD00FE7DA07C40AB17AA16A915A8141209FEFC
:100C0D00600A4008752A00752B018006752A00754B
:100C1D002B00E529651B7004E528651A600E8528F3
:100C2D001A85291B75260075270180067526007506
:100C3D002700E52B65217004E52A65206006852ACD
:040C4D0020852B21B2
:0B0C5100D0D0D082D083D0F0D0E032B1
:100D6B0043B22053B1DF43B20453B1FBE4F51FF59B
:100D7B001EF51DF51CF518F519AF1FAE1EAD1DACFC
:100D8B001C8F258E248D238C22F526F527F51A75BD
:100D9B001B01F520F521C2B2C2B5D2B4D2B3438F39
:100DAB00105389F0538E7F758CFC758A18438E0413
:100DBB0075D7A075D615D2A943AF04D28C438E102C
:010DCB002205
:080DCC008F2F8E2E8D2D8C2C33
:100DD400AF1FAE1EAD1DAC1C8F338E328D318C30E7
:100DE400AF2FAE2EAD2DAC2CAB33AA32A931A83027
:100DF400C3120B1F4015E533952FFFE532952EFEE8
:100E0400E531952DFDE530952CFC22AF2FAE2EADAE
:100E14002DAC2C120B11EF2533FFEE3532FEED35E0
:060E240031FDEC3530FC4D
:010E2A0022A5
:100E6000AB07AA06AF1FAE1EAD1DAC1C8F258E248E
:090E70008D238C228A188B1922B3
:100CE800120D6BD2AFE5187072E519146014146018
:100CF8002014605024037063758702007F017E0012
:100D08008054E51B451A70DDD2B5C2B27F02FE8061
:100D180045E51A451B24FF92B2E521640145207080
:100D2800067F03FE120E60AF25AE24AD23AC22125F
:100D38000DCCE47BE87A03F9F8C3120B1F50A6E444
:100D4800FFFE8012E51A451B24FF92B2E5214520DB
:100D58007093C2B5FFFE120E60808AE4FFFE120E89
:030D680060808226
:10080000020AEAE86480F8E933E83360110460F032
:10081000ED33EC337009E8FCE9FDEAFEEBFF22045E
:1008200060DED3EB9FEA9EE99DE8C2E78CF0C2F759
:1008300095F0400CE8CCF8E9CDF9EACEFAEBCFFB25
:10084000120AB585D0F05804700320D5B3E80470BF
:10085000075002B2D5020AF492D5EC0460F7E4CC5A
:10086000C0E0C398F8603B94186008400DD0E0FBEE
:10087000020ACCE4FBFAC9FC8028E830E406E4C9AB
:10088000FBE4CAFCE830E305E4C9CACBFCE8540742
:100890006010F8C3E913F9EA13FAEB13FBEC13FC4D
:1008A000D8F130F52FC3E49CFCEF9BFFEE9AFEEDF0
:1008B00099FDD0E0FBEF4E4D4C701222DB03020A93
:1008C000F1EC2CFCEF33FFEE33FEED33FDED30E7C2
:1008D000EB020ACCEF2BFFEE3AFEED39FDD0E0FB48
:1008E00050130BBB0003020AF4ED13FDEE13FEEFF1
:0808F00013FFEC13FC020ACC1B
:1008F800EC4D6011E8497017ED33EC3304600DE4FA
:10090800FCFFFEFD22E933E8330470F8020AEA121C
:100918000AB558046009E4CC24815006285009021D
:100928000AF4284003020AF1C0E0EB4A7044B98097
:1009380006D0E0FB020AE0EF4E701CBD8008EBFF1A
:10094800EAFEE9FD80EBE98DF0A4FEE5F00209E19D
:10095800E9CDF9EAFEEBFFEF89F0A4FCE5F0CE89DA
:10096800F0A42EFFE435F0CD89F0A42DFEE435F097
:100978008067EF4E7005BD80D780C3EF8BF0A4ACC5
:10098800F0EE8BF0A42CFCE435F0F8EF8AF0A42C00
:10099800E5F038FCE433CB8DF0A42CFCE5F03BF813
:1009A800EE8AF0A42CFCE5F038F8E433CF89F0A403
:1009B8002CFCE5F038CF3400CE89F0A42FFFE5F009
:1009C8003EFEE433C98DF0A42EFEE5F039CD8AF061
:1009D800A42FFFE5F03EFEE43DFD33D0E0FB5007D9
:1009E8000BBB000F020AF4EC2CFCEF33FFEE33FED6
:0609F800ED33FD020ACC04
:1009FE0074F8CC6480CCC86480C8F58204604FC3A0
:100A0E00EB9FF5F0EA9E42F0E99D42F0E89C45F03E
:100A1E00603C501DE5825FFFE582D313CB5BCBF4C8
:100A2E002B5582FB50280ABA002409B900200880F1
:100A3E001DE5825BFBE582D313CF5FCFF4C3132F8B
:100A4E005582FF50090EBE00050DBD00010CC3EB13
:100A5E009FF5F0EA9E42F0E99D42F0E89C45F06079
:090A6E0007CC4820E701B3EC229B
:100A770075F020800E75F010800575F0087D007EFA
:100A8700007F003392D530D503120B11EC334010A1
:100A9700EF33FFEE33FEED33FDEC33FCD5F0ED2203
:0E0AA700E5F0247EA2D513CC92E7CDCEFF223F
:100AB500E9D2E7C933E833F892D5EDD2E7CD33EC87
:070AC50033FC5002B2D52200
:100ACC00EC30E7100FBF000C0EBE00080DBD00048B
:100ADC000BEB6014A2D5EB13FCED92E7FD2274FF37
:100AEC00FCFDFEFF22E480F8A2D574FF13FC7D8090
:030AFC00E480EFA4
:03000000020C5C93
:0C0C5C00787FE4F6D8FD758133020CA30C
:100AFF00EF8DF0A4A8F0CF8CF0A428CE8DF0A42E0B
:020B0F00FE22C4
:0E0B1100C3E49FFFE49EFEE49DFDE49CFC22F5
:100B1F00EB9FF5F0EA9E42F0E99D42F0E89C45F02C
:010B2F0022A3
:100C6800020CE8E493A3F8E493A34003F68001F2AE
:100C780008DFF48029E493A3F85407240CC8C3338D
:100C8800C4540F4420C8834004F456800146F6DF5C
:100C9800E4800B0102040810204080900E79E47E65
:100CA800019360BCA3FF543F30E509541FFEE49351
:100CB800A360010ECF54C025E060A840B8E493A318
:100CC800FAE493A3F8E493A3C8C582C8CAC583CA43
:100CD800F0A3C8C582C8CAC583CADFE9DEE780BEFB
:010E8500006C
:00000001FF
